:100000000B308A004A2B0000FF00030E8301A10081
:100010007F08A0000A08AB008A01A00E0408A20015
:100020007708A3007808A4007908A5007A08A6003C
:1000300003170D080313A70003170F080313A800E5
:1000400003170C080313A90003170E080313AA00D3
:10005000831383128C308400801E30288C1A57281A
:100060008C308400001C36280C1859282208840083
:100070002308F7002408F8002508F9002608FA00EC
:10008000270803178D000313280803178F00031395
:10009000290803178C0003132A0803178E00031383
:1000A0002B088A00210E8300FF0E7F0E09008A11A3
:1000B0005B288A119B2864008C1E5B281808AC0002
:1000C0001A08F800AC1C6628181218167808AD003B
:1000D00064082D02031D7928B81C7928B7012E3039
:1000E0003707840083132D088000B70AB810381032
:1000F0009828B81898283708083C031983282D0831
:100100000D3C031D91282E303707840083132D08E2
:100110008000B814B70138142D080D3C031D3810A9
:1001200098282E303707840083132D088000B70AE3
:100130008C128A113628B90ABA0AC20A0319C30AEC
:10014000C40A0319C50AC60A0319C70AC80A03194B
:10015000C90ACA0A0319CB0ACC0A0319CD0ACE0A66
:100160000319CF0AD00A0319D10A640039080A3CDE
:10017000031CBC285A15DB285A113908093C0318FE
:10018000CC28B901BD08031DCC283C08FE3C031C4B
:10019000CC28BC0A0319BD0A3A08093C0318DB281D
:1001A000BA01BF08031DDB283E08FE3C031CDB2808
:1001B000BE0A0319BF0A8E010B308F00DC308E009F
:1001C0000C108A113628CD37E43720266937E830FD
:1001D00020326510C337ED306E32EF39A020633A1C
:1001E000693B61326F050D00CD37E4372026693752
:1001F000E83020326510C337ED306E32EF392022FF
:10020000E539E131F434F630E4378A060001CD37C0
:10021000E43720226531F533A0246E38753A731027
:10022000413A693B61326F050D00CD37E43720223A
:100230006531F533A0246E38753A7310C432F3304B
:10024000F434F630E4378A060001543465346D34F2
:1002500070346F3420344C3469346D347034653408
:100260007A346134203445346E34743472346134F9
:10027000643461342034643465342034433461346C
:100280006D346934E3346F3420343D342034253404
:100290004C34753420340A340D340034543465340D
:1002A0006D3470346F3420344C3469346D347034B0
:1002B00065347A346134203453346134ED34643439
:1002C00061342034643465342034433461346D3413
:1002D0006934E3346F3420343D34203425344C34D5
:1002E000753420340A340D340034D4326D386F1034
:1002F000D63272326510CD30F834ED37A0226D3829
:100300006936E830E437F23273103D102526751057
:100310008A060000D4326D386F10CC346D38653DDC
:100320006110C536F0346C3461326F39E539A02381
:1003300033102D1FA02332103D10252675108A067C
:1003400000004937F03A741031102D1FA0274E05D8
:100350000D004937F03A741031102D1FA0274623A5
:100360008A0600014937F03A7410B2163E104F2742
:100370008A0600014937F03A7410B2163E104F2336
:1003800046050D004937F03A7410B3163E104F275A
:100390008A0600014937F03A7410B3163E104F2315
:1003A00046050D004937F03A7410B4163E104F2739
:1003B0008A0600014937F03A7410B4163E104F23F4
:1003C00046050D002A15AA24EE34E3346F10E432FA
:1003D00020237537E3346F37E1366537F4372A1554
:1003E0002A050D00D2308400831300080319062A61
:1003F0000330F800F701F70BFB29F80BFA293C3022
:10040000F700F70B012A042A800BF82908000B08D3
:100410008316C70083128B13831603178C170C14D3
:10042000000000000313C71F182A83128B178316BE
:10043000831203170C087F390319812A83160313CB
:10044000C700831203170D0883160313C800831215
:1004500003170F0883160313C900470864008312AB
:100460000C1A342A83162E2A990083164808831200
:1004700003178D00831603134908831203178F0097
:1004800003130B088316CA0083128B1383160317FA
:100490008C170C14000000000313CA1F522A831289
:1004A0008B178316831203170C0D0E0D7F3903195A
:1004B000812A83160313C700831203170D088316BE
:1004C0000313C800831203170F0883160313C90010
:1004D0004708640083120C1A6F2A8316692A990050
:1004E00083164808831203178D00831603134908E7
:1004F000831203178F008D0A03198F0A0313072A2B
:1005000003170313080083164208003A83120319E5
:100510008D2A013A0319912A952A5F10DF14DB0115
:10052000952A5F14DF100130DB0083164308003A80
:10053000831203199F2A013A0319A32AA72A5F11DC
:10054000DF15DC01A72A5F15DF110130DC008316FF
:100550004408003A83120319B12A013A0319B52A53
:10056000B92A5F12DF16DD01B92A5F16DF120130EA
:10057000DD0083164508003A83120319C32A013AA5
:100580000319C72ACB2A5F13DF17DE01CB2A5F17B7
:10059000DF130130DE00080010308316D600F701AB
:1005A000FA01D30CD20C031CDB2A5408F7070318FA
:1005B000FA0A5508FA07FA0CF70CF90CF80CD60BE6
:1005C000D12A831208008316D208031D002B653040
:1005D000640083120C1AEE2A8316E82A99007230FE
:1005E00064000C1EF02A9900723064000C1EF52A7B
:1005F00099006F3064000C1EFA2A99000D2B8316A7
:100600006F30640083120C1A072B8316012B99009C
:100610006B3064000C1E092B99000D3064000C1E19
:100620000E2B99000A3064000C1E132B9900080051
:100630008316CC01CB01CE01CD01D001CF015110E9
:10064000831230082F3C0318962B3008393C031CCA
:10065000962B31082F3C0318962B3108393C031C8C
:10066000962B32082F3C0318962B3208393C031C7A
:10067000962B33080D3C031D962B8316D301831252
:1006800030088316D20030305202CD005308CE001D
:100690000030031C0130CE024E08D3004D08D200BA
:1006A000D5016430D4008312CC2279088316CE00A1
:1006B0007808CD00D301831231088316D200303080
:1006C0005202CF005308D0000030031C0130D0028A
:1006D0005008D3004F08D200D5010A30D40083124D
:1006E000CC2279088316D0007808CF004F08CD07B8
:1006F00050080318500FCE07D30183123208831617
:10070000D20030305202CF005308D0000030031C1A
:100710000130D0024F084D07CB004E08CC005008E6
:100720000318500FCC075114012C831230082F3CB2
:100730000318E12B3008393C031CE12B31082F3C16
:100740000318E12B3108393C031CE12B32080D3C26
:10075000031DE12B8316D301831230088316D200C8
:1007600030305202CD005308CE000030031C01305F
:10077000CE024E08D3004D08D200D5010A30D40075
:100780008312CC2279088316CE007808CD00D301DD
:10079000831231088316D20030305202CF00530842
:1007A000D0000030031C0130D0024F084D07CB00B1
:1007B0004E08CC0050080318500FCC075114012CE0
:1007C000831230082F3C0318022C3008393C031CDC
:1007D000022C31080D3C031D022C8316D301831219
:1007E00030088316D20030305202CF005308D000B8
:1007F0000030031C0130D0025008CC004F08CB0061
:10080000511483128316511C6A2C4C084A02031C93
:100810006A2C031D0F2C4B084902031C6A2C031081
:10082000480DA03E84008313840A4C088000840392
:100830004B0880004C08D20083120B08F7008B1382
:1008400083164708831203178D00831603134C0881
:10085000831203178C0083168C130C1555308D00F2
:10086000AA308D008C148C18332C0C11770883124D
:1008700003138B040A308316D2008312F221013055
:1008800083164707D2004B08D30083120B08F700EA
:100890008B1383165208831203178D0083160313DC
:1008A0004B08831203178C0083168C130C155530DC
:1008B0008D00AA308D008C148C185C2C0C117708DC
:1008C000831203138B0401308316D2008312E322B8
:1008D0006D2C8316D2018312E32208000B088316C5
:1008E000C80083128B13831603178C170C14000097
:1008F00000000313C81F7F2C83128B1783168312EB
:1009000003170D0883160313C800831203170F087B
:1009100083160313C900831203170C086400031322
:100920000C1A942C03178E2C9900831648088312F6
:1009300003178D00831603134908831203178F00D2
:100940008D0A03198F0A83160313C70BA82CAA2C30
:1009500083126E2C831208008316CF010408CE0088
:100960004F10831B4F14480EF038CA00CA07E23EEE
:10097000CB00323ECD0048080F39CB07CB07CD075F
:10098000E93ECC00CC07CC07470E0F39CC07CD078A
:10099000CC0DCD0DCD09CD0D47080F39CD07CA0DB2
:1009A0000730C9000A30CD07CC03031CD32CCC0779
:1009B000CB03031CD72CCB07CA03031CDB2CCA07B1
:1009C000C903031CDF2CC9308400831307304E0594
:1009D0004E138407CD30040203194E170008F700A8
:1009E000031DFA2C4E1BFA2C4E1A072DCE19FA2C89
:1009F0002030FD2CCE154E123030F70777086400FA
:100A000083120C1A052D8316FF2C99008316840A75
:100A10004E1FEA2C831208000B088316C8008312AD
:100A20008B13831603178C170C140000000003139C
:100A3000C81F1D2D83128B17831603185A2D83127E
:100A400003170C087F3983160313C800831203179A
:100A50000D0883160313C900831203170F088316AA
:100A60000313CA004808640083120C1A392D831638
:100A7000332D990083164908831203178D008316BE
:100A800003134A08831203178F0003130B088316FE
:100A9000CB0083128B13831603178C170C140000E2
:100AA00000000313CB1F572D83128B178316C70B20
:100AB0005A2D8C2D831203170C0D0E0D7F398316C2
:100AC0000313C800831203170D0883160313C9000C
:100AD000831203170F0883160313CA004808640023
:100AE00083120C1A752D83166F2D990083164908F1
:100AF000831203178D00831603134A08831203170A
:100B00008F008D0A03198F0A031083160313C70B76
:100B10008A2D8C2D83120C2D831208008316C2019E
:100B2000C3013030C400C601C50183122F08233A27
:100B30000319B32D623A0319D02D033A0319DC2DA2
:100B4000013A0319E82D073A0319F42D013A031964
:100B5000002E1F3A03190E2E083A0319242E013ACB
:100B60000319402EDD2E3008233C031DCF2D310804
:100B70000D3C031DCF2DDA19C72DDA15E33003170D
:100B80008D0000308F0003130722BB01CF2DDA1137
:100B9000F43003178D0000308F0003130722DD2E81
:100BA000DA1DDB2D8316C7010330C800CA0164308B
:100BB000C90083121823DD2EDA1DE82D02308316BA
:100BC000C7000730C800CA016430C9008312182367
:100BD000DA1DF42D04308316C7000830C800CA019E
:100BE0006430C90083121823DA1D002E06308316E4
:100BF000C7000C30C800CA016430C9008312182332
:100C0000DA1D0C2E08308316C7000B30C800CA014D
:100C10006430C90083121823DD2EDD2EDA1D232E49
:100C20005A1A1B2E5A16073003178D0001308F00F9
:100C300003130722232E5A12153003178D0001309B
:100C40008F0003130722DD2EDA1D3F2E3008533CA0
:100C5000031D3B2E31080D3C031D3B2E0130831636
:100C6000D2008312E32202308316D2008312F221D3
:100C70008A0100283F2E8316D2018312E322DD2E43
:100C8000DA1DDD2E3008573C031DD92E31080D3CEE
:100C9000031DD92E253003178D0001308F0022301F
:100CA00083160313C70083126E241030840083164A
:100CB0002708C8002608C7008312AC24203064002F
:100CC0000C1E5F2E99000A3064000C1E642E9900E1
:100CD0000D3064000C1E692E99004E3003178D00F4
:100CE00001308F00203083160313C70083126E2457
:100CF0001030840083162F08C8002E08C700831206
:100D0000AC24203064000C1E822E99000A3064004E
:100D10000C1E872E99000D3064000C1E8C2E99003D
:100D2000753003178D0001308F00031022308316B9
:100D30000313C70083120C25103084008316330878
:100D4000C8003208C7008312AC24203064000C1E97
:100D5000A62E99000A3064000C1EAB2E99000D30AF
:100D600064000C1EB02E99008A3003178D000130EC
:100D70008F000310263083160313C70083120C253F
:100D80001030840083163708C8003608C700831265
:100D9000AC24203064000C1ECA2E99000A30640076
:100DA0000C1ECF2E99000D3064000C1ED42E99001D
:0E0DB000DD2E8316D2018312E3228A15E42C75
:101000006400520803190828013A03190F282B28F5
:10101000871E0E28C301C2010130D2002B28C3084D
:10102000031D1C284208093C031C1C28871A1B2886
:10103000D201C301C2012A285A1E2728A130031752
:101040008D0001308F008A11031307228A1538158D
:101050003817D2012B28530803193228013A0319F3
:1010600039285428871A3828C501C4010130D30013
:101070005428C508031D46284408093C031C46287B
:10108000871E4528D301C501C40153285A1E512883
:10109000A93003178D0001308F008A110313072236
:1010A0008A153811D3015428540803195B28013AD2
:1010B000031962287E28071E6128C701C601013076
:1010C000D4007E28C708031D6F284608093C031C6E
:1010D0006F28071A6E28D401C701C6017D285A1E41
:1010E0007A28B23003178D0001308F008A11031364
:1010F00007228A15B815B817D4017E285508031998
:101100008528013A03198C28A728071A8B28C901BA
:10111000C8010130D500A728C908031D992848082F
:10112000093C031C9928071E9828D501C901C8014C
:10113000A6285A1EA428BA3003178D0001308F004C
:101140008A11031307228A15B811D501A72856085A
:101150000319AE28013A0319B528D128871DB428F0
:10116000CB01CA010130D600D128CB08031DC2280B
:101170004A08093C031CC2288719C128D601CB01A3
:10118000CA01D0285A1ECD28C23003178D00013065
:101190008F008A11031307228A1538165A14D601B4
:1011A000D12857080319D828013A0319DF28FA284B
:1011B0008719DE28CD01CC010130D700FA28CD08EF
:1011C000031DEC284C08093C031CEC28871DEB2868
:1011D000D701CD01CC01F9285A1EF728CA300317D0
:1011E0008D0001308F008A11031307228A153812EF
:1011F000D701FA28580803190129013A03190829C7
:101200002429071D0729CF01CE010130D800242948
:10121000CF08031D15294E08093C031C1529071981
:101220001429D801CF01CE0123295A1E2029D230FA
:1012300003178D0001308F008A11031307228A15CE
:10124000B816DA14D8012429590803192B29013AB0
:10125000031932294D2907193129D101D001013053
:10126000D9004D29D108031D3F295008093C031C12
:101270003F29071D3E29D901D101D0014C295A1E11
:101280004A29DA3003178D0001308F008A110313C9
:1012900007228A15B812D9014D298A15F42C650840
:1012A000F93E03183D2A073E352B831624082002F9
:1012B000F7002108FA002508031C250FFA02770819
:1012C000F8007A0883123D02031C7529031D6C295E
:1012D00078083C02031C75290130E50083162408B8
:1012E00020028312E700BD01BC013D2A83162508B8
:1012F00083123D02031CAD29031D84298316240893
:1013000083123C02031CAD29831624088312E707CD
:101310008316A308031DAA298312670883162202D5
:101320000318AA2983125A1897298316AA2902306A
:10133000E500BD01BC0101308316C2000330C300CB
:10134000C4000130C5008A11831283228A15DA167F
:10135000AD2983168312BD01BC013D2A83162708DF
:1013600083123D02031CCC29031DBC2983162608C9
:1013700083123C02031CCC295A1FCC290330E50000
:10138000BD01BC018316C201C300C4000130C50009
:101390008A11831283228A153D2A83162C0828027B
:1013A000F7002908FA002D08031C2D0FFA02770810
:1013B000F8007A0883123D02031CEE29031DE4297C
:1013C00078083C02031CEE295A100430E50083160D
:1013D0002C0828028312E700BD01BC013D2A8316B8
:1013E0002D0883123D02031C172A031DFD298316B5
:1013F0002C0883123C02031C172A83162C08831224
:10140000E707381D152AB81D152A0530E5000130FB
:101410008316C2000330C300C4000130C5008A1126
:10142000831283228A15DA12172ABD01BC013D2AD4
:101430003819202AB819202A0630E500BD01BC0160
:101440003D2A83162F0883123D02031C3D2A031DEB
:101450002F2A83162E0883123C02031C3D2AE50125
:10146000BD01BC0101308316C2000330C300C400BB
:10147000C5018A11831283228A156608FA3E031871
:10148000332B063E402B831634083002F700310818
:10149000FA003508031C350FFA027708F8007A08BD
:1014A00083123F02031C632A031D5A2A78083E0256
:1014B000031C632A0130E6008316340830028312CD
:1014C000E800BF01BE01332B8316350883123F02AB
:1014D000031C9C2A031D722A8316340883123E02C1
:1014E000031C9C2A831634088312E8078316B3086A
:1014F000031D992A83126808831632020318992A59
:101500008312DA18872ADA1A872A8316992A023070
:10151000E600BF01BE0103308316C2000130C300E4
:10152000C4000330C5008A11831283228A159C2AC5
:1015300083168312BF01BE01332B83163708831233
:101540003F02031CBB2A031DAB2A831636088312F5
:101550003E02031CBB2A5A170330E600BF01BE013E
:101560008316C200C3010130C4000330C5008A11D4
:10157000831283228A15332B83163C083802F70026
:101580003908FA003D08031C3D0FFA027708F800FD
:101590007A0883123F02031CDD2A031DD32A780830
:1015A0003E02031CDD2ADA100430E60083163C08F4
:1015B00038028312E800BF01BE01332B83163D08B9
:1015C00083123F02031C152B031DEC2A83163C08D3
:1015D00083123E02031C152B83163C088312E80776
:1015E0008316B308031DFA2A831268088316320291
:1015F000031CFE2A8312DA18122B83168312DA1ABE
:10160000122B0530E600BF01BE0103308316C20075
:101610000130C300C4000330C5008A118312832245
:101620008A15152BBF01BE01DA10332B831637083C
:1016300083123F02031C332B031D242B8316360811
:1016400083123E02031C332BE601BF01BE010330AF
:101650008316C2000130C300C4010330C5008A11E3
:10166000831283228A158A15F52C0A148A140A110A
:10167000820755297629AE29CD29EF29182A212A52
:101680000A148A140A118207432A642A9D2ABC2A52
:10169000DE2A162B03081F398300AC0183160317BB
:1016A0008711403003139900A630980090308312C0
:1016B0009800AD01B7013810B814B901BA01B430BF
:1016C000BB00BD01BC01BF01BE01C101C001C3011E
:1016D000C201C501C401C701C601C901C801CB01CE
:1016E000CA01CD01CC01CF01CE01D101D001D2017F
:1016F000D301D401D501D601D701D801D9013811C0
:10170000B8113812B8123813B8135A10DA105A1127
:10171000DB01DC01DD01DE01DF01DA11E101FF3077
:10172000E000E301E2002330E400E501E601E70127
:10173000E8015A12DA125A13EA01E9018316031773
:101740000908C039890003131F129F1200300317C4
:10175000880083128701880189018313831603138C
:10176000BE01BF01C101C0012330850000308600E9
:10177000BF308700831286011F10253090008E0134
:101780000B308F00DC308E0083160C148C16C030AA
:1017900083128B0464308316D2008A118312F221E3
:1017A0008A150930031785000F30F70003138101F4
:1017B0008130840083130008F0390738800064000A
:1017C0000008F739F719F03977048000E230031781
:1017D0008D0001308F008A11031307228A15031030
:1017E00083163E0DA03E840083133F088312031727
:1017F0008D0083168C130C1483120C0883160313AC
:10180000C40001303F07C5004508831203178D004F
:1018100083168C130C1483120C0883160313C50053
:10182000840A440880008403450880000230D20006
:101830008A118312F2218A1502308316BF07BF0175
:101840003F08831203178D0083168C130C14831228
:101850000C0883160313C20001303F07C30043087E
:10186000831203178D0083168C130C1483120C083B
:1018700083160313C3004208A7004308A6000230E2
:10188000BF003F08831203178D0083168C130C14BE
:1018900083120C0883160313C20001303F07C300F4
:1018A0004308831203178D0083168C130C148312C4
:1018B0000C0883160313C3004208AF004308AE00B0
:1018C0000430BF003F08831203178D0083168C136A
:1018D0000C1483120C0883160313C20001303F0757
:1018E000C3004308831203178D0083168C130C1456
:1018F00083120C0883160313C3004208B300430885
:10190000B2000630BF003F08831203178D00831614
:101910008C130C1483120C0883160313C2000130BD
:101920003F07C3004308831203178D0083168C13EF
:101930000C1483120C0883160313C3004208B7006B
:101940004308B600A1010A30A000A3011430A20090
:10195000A5010630A400A9010A30A800AB0114308B
:10196000AA00AD010630AC00B501B400BB011430D3
:10197000BA00BD010630BC008312B901BD01BC0133
:101980008316C101C00183123D088316C100831272
:101990003C088316C000831205118511013083169F
:1019A000C200C300C401C5018A11831283228A15B3
:1019B0006400381CE62C02308316D2008A11831290
:1019C000F2218A158A118E2D8A15381064003B0881
:1019D0003B3C0318ED2CDA19DA115F088600610828
:0E19E000E3006008E20000284F29D92C6300C4
:04400E008A2CFF3FBA
:00000001FF
;PIC16F883
;CRC=FB5C  CREATED="13-Out-17 11:45"
